{
  "_format": "hh-sol-artifact-1",
  "contractName": "EvaluationHashStorage",
  "sourceName": "contracts/EvaluationHashStrorage.sol",
  "abi": [
    {
      "inputs": [
        {
          "internalType": "address",
          "name": "",
          "type": "address"
        }
      ],
      "name": "evaluationHashes",
      "outputs": [
        {
          "internalType": "bytes32",
          "name": "",
          "type": "bytes32"
        }
      ],
      "stateMutability": "view",
      "type": "function"
    },
    {
      "inputs": [
        {
          "internalType": "address",
          "name": "evaluator",
          "type": "address"
        }
      ],
      "name": "getEvaluationHash",
      "outputs": [
        {
          "internalType": "bytes32",
          "name": "",
          "type": "bytes32"
        }
      ],
      "stateMutability": "view",
      "type": "function"
    },
    {
      "inputs": [
        {
          "internalType": "address",
          "name": "evaluator",
          "type": "address"
        },
        {
          "internalType": "bytes32",
          "name": "_evaluationHash",
          "type": "bytes32"
        }
      ],
      "name": "storeEvaluationHash",
      "outputs": [],
      "stateMutability": "nonpayable",
      "type": "function"
    },
    {
      "inputs": [
        {
          "internalType": "address",
          "name": "evaluator",
          "type": "address"
        },
        {
          "internalType": "bytes32",
          "name": "_evaluationHash",
          "type": "bytes32"
        }
      ],
      "name": "verifyEvaluationHash",
      "outputs": [
        {
          "internalType": "bool",
          "name": "",
          "type": "bool"
        }
      ],
      "stateMutability": "view",
      "type": "function"
    }
  ],
  "bytecode": "0x608060405234801561001057600080fd5b5061038b806100206000396000f3fe608060405234801561001057600080fd5b506004361061004c5760003560e01c8063517aa12a14610051578063866a213c14610081578063bf2c3b2f1461009d578063c4c381a9146100cd575b600080fd5b61006b60048036038101906100669190610288565b6100fd565b60405161007891906102e3565b60405180910390f35b61009b60048036038101906100969190610288565b610148565b005b6100b760048036038101906100b291906102fe565b61018f565b6040516100c4919061033a565b60405180910390f35b6100e760048036038101906100e291906102fe565b6101a7565b6040516100f4919061033a565b60405180910390f35b6000816000808573ffffffffffffffffffffffffffffffffffffffff1673ffffffffffffffffffffffffffffffffffffffff1681526020019081526020016000205414905092915050565b806000808473ffffffffffffffffffffffffffffffffffffffff1673ffffffffffffffffffffffffffffffffffffffff168152602001908152602001600020819055505050565b60006020528060005260406000206000915090505481565b60008060008373ffffffffffffffffffffffffffffffffffffffff1673ffffffffffffffffffffffffffffffffffffffff168152602001908152602001600020549050919050565b600080fd5b600073ffffffffffffffffffffffffffffffffffffffff82169050919050565b600061021f826101f4565b9050919050565b61022f81610214565b811461023a57600080fd5b50565b60008135905061024c81610226565b92915050565b6000819050919050565b61026581610252565b811461027057600080fd5b50565b6000813590506102828161025c565b92915050565b6000806040838503121561029f5761029e6101ef565b5b60006102ad8582860161023d565b92505060206102be85828601610273565b9150509250929050565b60008115159050919050565b6102dd816102c8565b82525050565b60006020820190506102f860008301846102d4565b92915050565b600060208284031215610314576103136101ef565b5b60006103228482850161023d565b91505092915050565b61033481610252565b82525050565b600060208201905061034f600083018461032b565b9291505056fea2646970667358221220e5d253f7b10b476fe50d3ff40e9d2ecee7f49ddc996b1c97d45a174b484e53b264736f6c63430008180033",
  "linkReferences": {},
  "deployedLinkReferences": {}
}